110 136656 0WEST VI 10001BYRD  ROBER1911161111111611661116166616161111111611116111111111111111111111611611161111616611666611666661661666166616666166611611666111111111111111111166666116116111161161616666111111611111111116111161116666611116661611161661116616661111161161116611111116111699911116666666699966666161111111116116666166116666666666611161611111661611661111111611119991161611116111111611661111111111616111116611611111161116666161111111611611611666666661111661116111116111666191111111111111661111661111119999999991616166169611199999999999999999996699999999911199991161666611116611116111116666116111111161166111616999999911966919991111111166116111161666611111111111111116116116111111611
110 481282 0HAWAII  10001INOUYE     9999999991111611661116199999999991111619116111991111111111111111611611111111116611666611666661661666166616666166611611666911111611111191111166666116116116611161616661161111111161161616116616161616166116111111161661116616661111111116611111991116199999911116661661616616616111111911116116666161116666666666611111611111661611661111111619116111161611116111111611111611999999996111116611611111161161666161111111611611111166666666166661119111611111116119111166166666111119999996611111111111616166161611161616666166111966666666616611199999991611666611119999116111116666116111111161666111111191111191166611111111166611111111161666611119991111111196111111111111111
11010808 3 0MASSACH 10001KENNEDY  ED1111161111111611661116166616161111111611116111111119111699916661611611161111616611666611666661661666666616666166611611666111111111111111111166666116111196661161616661166111166166166616116666161616166666111111161666116116161111111111111111111116111111111116661666616616616111111111116116666161116666666166611161611111661661661111111611116111161611116111111611161119999999999999999999999999999999996161111111611611111116666661111161111111116111166199111111111111661111661166111911111111616166661611161616666166611166666666616611111699991611996611911611116119116666116111111961666999999999999999999999999999999999199999999999999999999999999999999999999999999
1101210981 0ALASKA  20001STEVENS    1116611111111166161111699999999991116111116616111169111111161116111111111161111111111111166616166161611611116611161111666111161116661111111166966161161116661116116666611116161116161611611161616161611666661671616116166691616111616161116111116161111166966166111116161161161161111966116116916616111161666661111116111611611611161111116111111166616166111611111616111611111661116111616611111111161116666161111611111166161666666161666611911116661611111611661166666666111611661111111161116111161611616111611161161616611616616611611166911161111611666611116111166111611166111111611116111116111691966116161611111111166611111199161666611991616966116616111161191111111
1101400946 0MISSISS 20001COCHRAN    1166661111111166161111611111111611116111116611111199111111161116111161116161196111111111111116116161611111111611161111666111161119661111111166611161161116661116116666611116161116111661661161616161616661661661616116661661616666666161116111116161111196666161111116161161161161111116116111611616661111111111166116111661616111111111616116111166616166111616611616111611111166116111611111111111111116666161666611111166161666611166666611111116661611111611661166666666111611661111111161616161161611616111611161166666616166916611661166611161911111119611116111161111611111161116611116111166111691666166166616111611166611611111161116611611616666116611111161161111166
1101403146 0MISSISS 20001LOTT       1661116161111166161111611111111691116111116611111166161111161116111111116161111111111111111116116111611169991611161111666111661116661911116616111166116116161116111666611116166116661661661161616161611661666661616116661161616666616161111111116161111199966661111116169999999991116116199911111616661111111161166199111661116111111111616166611166616169111616611116111669111666166111661161166111111111666161666661111999161661161196666611911116661611000000000000000000000000000000000000000000000000000000000000000000000000000000000000000000000000000000000000000000000000000000000000000000000000000000000000000000000000000000000000000000000000000000000000000000000
1101410111 0DELAWAR 10001BIDEN      9111161991111611611196166616961111991991116119991111999699911111691611161111619991666611999999999966666616666166619611666111111199911111111169999919999991111161619661161911911161161619916616161616166116119199161666999999961111111199991111111116999999911916661661616616616199111111116199666161116666666666611161699999999999999999911611116111119991916111999999991199999991619999999999999999999661699999911999999611999199999991199999999999999999166199111111111161661111661166116119111111696166161611161616666166611166666666616611111699111611666611119999116119119999116111111161666111119999911111166611161111111116111111161666611111111111111199999999999999111
1101410366 0NEW MEX 20001DOMENICI   1111161991111116161111661111111611116111116611111166111111161666111116116161111111111111166616161661611661111611161111666111666116661111116166611169161116661116116991611116166166661661616661616161166666661661616116661666116161616161116111116161119166966166611111161161161161116166116116166166111661661111111116119911616111111111116119119966616169111611111616111691116166116111661111111111111116666161111661111166161616161116666611111116661619111699611166666666111611661111611161616611161611616111611161166666616116616619999999911199111611666611116111961111616666611111661616111116161996666166996616111611166611611111166666611611616666999911161161161111111
1101420364 0MONTANA 10001BAUCUS     1111161111111611161116166616161111111611116111111111111611111111611611111111116611616611666666661666166616666166611611666111111611111611111166661116111111111111616666661111611111611616111611111661111111661611161661166616661111166666166111111116111111111116661611116116616111111111116116666166116666666666611161111111661611661111111611116161161161111111111611161611116661616111116611611111161666666161111111611611111166666666161611111111611111166111111111111161111111661116616111111111616166161619161111166666611166666166616611111116111611666611111611116111116661116111111161666111119111111111166611111111111111111111161666611111111111111116111111111111111
11014213 1 0CONNECT 10001DODD       1111169991111611661116166699961111111611116111119911911699911111619991161111616619999999666661661666666616666166611611666111119999111111111166666116999991161161616611166111991161166999916619999999999996111199969999996696161111111116611111111116999111111116661661616616616199111999999996666161116696666666611961999999991699999999991619996911161616916111161669991199991191619999999999999999999999999999119999999661999199999991199999999969999999166111111111111166661111661119991111111111616166161611161616666166611166666666616611111666111661966611111611116119116666116111111161666116611111111111166611161111111166111111161666611111111111111116111111111111111
1101422631 0IOWA    20001GRASSLEY   1166611111111616111111666111111611116111116611111166161111161116161166616161111111111111111616116111611161111111161116661111666166661611116611111161116611111116116666611116161111111111161161116161611661666661111116161666661111666161166111116161111166666166111116161161161161116166111116666166111666666161611116166661116111111111166166116166616166111611111116111661116666111111661111116111111116616111111661111161161666666161111611611116661611111616611166666666111611111111611161116611161611616111611161161616116111111611111161611161111611111111116111161111616666611111611116111166111661616166111616111661166611611111666111111616616666116611161161161111111
1101423031 0IOWA    10001HARKIN     1116661991111611661116166616161111111611116161111111111611111111611611111111116611666611666661661666666616666166611611661111111119111111111166661116116111111161616661166111111161161616116616161616166116111111161666116616161111111116666111111116111611911116661661116616616111111111116116666161116666666666611199116111661661661199111611116111161611116111161611161111111111616111116611111111161661666199111111611611611166666661111161111161116111169911111111111111661111661116611111111111616166661611161616666166111166666666616611111616111911666611111611116111116111116111111161666116611111111111199911161111111166116611161666611119911111111116111111111111611
11014307 6 0VERMONT 10001LEAHY      1111161111111111661116166616161191111611116111111111111611911111611616111111616611616611666661661666166616666166611611666111111111111111111166661116116111111111616661166111111161166616116616161616166116111111161666116111661111111116661111111116611111111116666661616616616111111111116116666161111666666666611161611111661611661111111611116111161111116111161661161111111111616111116611611111161661666161111111611611611166666666161161111111116111166111111111111111661111661116611111111111616166161611161616666166111966666166616611111616111611666611111611116111116666116111111161666116611111111111166611161111111166111199161666611111111111111116111111111111611
1101440082 0HAWAII  10001AKAKA      1111161111111611661116166616161111111611116111111111111111111111611611111111616611666611666661661666166616666166611611666111111111111111111166666116116116111161616661161111161166161616116616161616166166111111161661116616661111111116661111111116111111111116661661616616616111111111116116966161116666666666611161111111661611661111111611116111161611111111111611111111111111616111116611611111161111666161111111611611611166666661166661111111111111166111111111111111661111661116111111111111616166161611161616666166611166666666616611111616111611666611111611116111116666116111111161666111111191111111166611111111111166111111161666611111111111111116111111111111611
1101444052 0MARYLAN 10001MIKULSKI   1116161111111111661116166616161111111611116111111111111611116661611611111111116691666611666661661666166616666166611611666111111611111111111166661116111111111161616661161111161161161616116616161616116616111111161666116611661111111116661111111116111111111116661661616616616111111111116116666161116666666666611111611111661611661111111611116111161161111111161611161611111111616111199911111111161661666161111111611611111116666661111661111111611111116111111111166661111111661166611111111111616166161611161616666166111166666166696611111616111611666611111611116111119999116111111161666111111191111111166611111111166111111111161666611111111111111196111111111111111
1101450367 0UTAH    20001HATCH      1161111161111116166111611111111611116111116616111199161111161116111166616666116111111111111116116111611111111111161111661111661116661611111666611161191116661116116666611119166116999661661161611161611661661661616116161666116666666161166111116161111166666161111116161161161161116166116116666166111666666161611116161661116111161111611616611116616166111611111616111661111666116111611111116111111111666161111661111166161661166161166616111116661671111611661166666666111611661111111161611611161611616116611161161611116111116611161166611161991611666111116111161111616166111111666116111166116696666166166611111661166611611111166111611616616666116611161161161111111
1101450622 0INDIANA 20001LUGAR      1661661111111116161111666111111611116111116611111166161111161116161116116161111111111111166616161111111616111611161111611111661116661111116161666161161111161116111661611116166166161611116666116166116666661161116111666116661111611161111111116161111166666666111111661161161161116166116111616666111611666111111199161661616616161111616116611111616166116111111116111666111111116111616111116166111111616111111611111166161611166111116111111616661611111611661166666666111111661111111161616611161611616116611161161616111116616611611111611161111611166611119999166111616666161116666616111166161666666166666611111611166611611111161666611611616616116111111161161111111
1101465143 0FLORIDA 10001NELSON     1116661111111611611116166616161111111611116111111119111611116661611611611111116611616611666666661666166616666166611611666911111619111111111166661116116111111161616611611111961161161616111616161616116116111111161661116116661111111116611111111116111119911116661661616616616111111111116116666161116616666666611111611111661611611111111611116111111161111111111611161611111111616111116611111111161661666161111111611611111116666611116161111911611111119911111111166611111111661116616111111111616166161611161616666166611166666166616611111616111611666611111111116111111111116161111161666111111191111111166611111111166111111111161666611111111111111116111111111191166
11014661 2 0MAINE   20001SNOWE      1116661111111116111111166116161111116611116616161116161111161166111111111161116111616111666666166166111616666166111116661111661116111111111166661166116611111111616661611111161166161616111161666166111661661611161666111111161111616111161111111116111166616116611611161161661161116116116116666166111666666661611116111611661611161111111611116111116161111111111611161611111161611111616111611111161111666161111611111116161111116616116611111116611111111611611166166666111111661116111161116111611611111616161111166666611161616116116611111116111611661611111611111111111666116111111161666111111161111111166611111111166611111111161616611111116161171616111111111111111
1101470923 0MICHIGA 10001LEVIN  CARL1111161111111611611116166616161111111611116111111111111611116661611611161111116611666611666661661666666616666166611611666111111611111111111166666116116111111961616661661111111161161616116666161616166116691111161961116616661666111116661111111116111111111116661661616616616111111111116116966161116666666666611161111111661661661199111611116111161661111111111611111611111111616111116611111111161661666161111111611611111166666611111161111111611111166111111111161111661111661116116111111111616166661611161616666166611166666166616611111616111611966611111611116111116661116111111161666111111111111111166611111111111166111111161666611111111111111116111111111191111
1101471240 0VIRGINI 20001WARNER     1166661111111116161111166111111611116119116616161116111111166666111116116161111111111111161616166161611161116611161111611111661116661111116166661161191116161116116661611116166116661661611161616161116666669661616116666166116111611111116111111161111166966161111116161161161161116166116111911616111111166161611116119661611611111111111616116166616166111111111611199991999999996999999911111911111116666161999661111166161611111111616661111116661611911611661166666666111611111999999161116111161611616116611161161616616111616611611116611166111616666111111111166111619999991116199111611116111961116166166611111611166611111111199999991619911666111616111161161111111
1101480963 0IDAHO   20001CRAIG      1166661111111116161111611111111691116161116611111166161111161116111166616161111111111111111616116111611161111611161111661111666119661611116616611161116116661116116166611116166116661661616161616166611666661661616116161666116611611111161111116161111166966161111116161161161661116116111191111616661111111111166116999999999999999999999999991166616166161616661616111691111666116116661161116111111111666166666611111166161666666166666611111196661611111616666666166966111611661111111161616611161611616111611161161611116111116611161161611161111611666611116111161111991616611116611116111116116661966166161616111666166611611199616111161611616666116611161161161166111
1101481236 0NORTH D 10001DORGAN     1111161111111611161116166616161191111611116111111111111611111611611611111111116611666611666661661666666616666166611611666111111111111111111666661116116611111161616661661111611111111116111661111111111111661611161661166616661111166661666111991116111111111116661611116616616111111111116116616166116616666666611199611111661611661111111611116111161161111111111611161611111111616111116611111111161116666161111111611611616166666661111661111111611111166191111119111161661111661116616111111191616166661611111661666166111166666666616611111699991611666611111611116111116661616111111161666111111111611111166611111111111116111111161666611111111111111116111111111111666
11014826 4 0NEW HAM 20001GREGG      9161661111111116161111616111111616116111116616119966161199166666111166616161111111111116111116116111611111161611161116111111661119666611116616116661161116661116161611611616166616661161161161616161616661666661111166666116166111616661111111116161119166666666111116161161161661116116116191116616111111111161666199111661616111161611616116611166616166611116611616111611111116111116611161116111616116191616666666111166161611166116616161611696661611111691666666666666111611111111161161616611161611616116611161161611116611116611161166611161661116669999166166161199616666611111666616611166161699966166666916111661966611611199116111161611616666116616161161161166111
1101485232 0KANSAS  20001ROBERTS    1166661161111116161111661111111691116111116616161166161199161116111166116161111111111111161616166161611161111111161116661111666119661611116666611161161119999916116666611116661116611161161161616161611661666661616916661666611666666161116111116161111169966161111116161161161661116166116111616666111661666161611116111161116111111911111616611166616166111611111616161661116666111116611111111111111116161111111661191166161666666166666611111116661611111611661166666666111611661111111161616611161611616116611161161616116111616611161111611161111611611611111111161111116666161116616116611116111691666116199916111111166611111111161116111611616666116611111161161111166
1101485813 0NEW YOR 10001SCHUMER    1111161111111611661116166616999919111611199111111111111611116661611611111111116611666611666661661666666616666166611611666111111611111111111166661116116111111161616661161111191161999616116616161616166116111111161666116111161111111116611111111116111111111116661611616116616111111111116116666161116666666666611161611111661661661191111611116111161611111111111611161111111111616111116611611111161661666161111111111611111116666661111161111111116111166119111111111111661111661166111111111111616166661611161616666166611166666666616611111616111611666611111611116111111116116111111161666116611111111111166611161111111166111111161666611111111111111116111111111111111
1101487172 0OREGON  10001WYDEN      1116161111119611611116166616161111111611116116111111111111111111611611111111116611666611666666661666166616666166611611666111111611111111111166661116116111111161616661161111161161166616116616161616116116111111161666116616661111111116661111111116111111111116661661116116616111111961116116666166116666666666611161111111661611661111111611116111161611116111111611161111116111616111116611611111161661669999999111611611111166666661111661111161116111166111111111111111661111661116111111111111616166161611161611666666611166666166616611111616111611666611111611116111116666116111111161666116619191111111166611161111111166111111161666611111111111111196111111111111166
1101491014 0PENNSYL 20001SPECTER    1166661111111116161111166111161611116111116611111119116611916611611161161161111111111611166666166161611616111166161111666111161116611111116166161161111116161116116661611116166166161661116661166166116666669111111116166616111111111111111111116161111166966116611611661161161161116161616116666666111666666661611116111611661611161111111611116111611166111111111611119911111111616111616611611111161116666161111611111166161616116611616161611116661611116616611166166611111611161116111161111111161611616111611161166616111161616611616111611111996611166611111111116111616666111111116111616116111691966116166616111611161111111111161616611611666616116611111161111111111
1101491266 0NEW MEX 10001BINGAMAN   1111161111111611611116166616161111111611116111111111111111111611611611111111616611666611666661661666666616666166611611661111111611111111111166661116196111111161616611661111161161161616116616161616166116611611161661666616661111111116666111111116111119111116661666616616616111111111116116666161116666666666611161619999661611661111111611116111161661116111161611161611111111616111116611111111161661666161111111611611111166666661111161111111616111166111111111111111661111661116616111111111616166661611161616666166611166666666616611111696111611666611111611116111116161116111111161666111611191111111166611111111111166111111161666611111111111111116111111111111611
1101491412 0NEW JER 10001LAUTENBERG 9111161111111611611116166616161111111611116111111119111611116661611611161111116611666611666661661666666616666166611611666111111619111111111166661116111111111161616661161111111161161616116616161616166116111111161666116116161111111116661111111116119111111116661661616616616111111111116116666161116666666666611161611111661661661191111611116111161611111111161611161111111111616111116611611111161661666161111111611611111116666661111161611691116111166111111111111111661111661166111111111111616166161611161616666166611166666666616616191699991611666611911611116119111111116111111161666116619191111111166611161111111166111111961666611111111111111116111111111111111
11014920 3 0MASSACH 10001KERRY  JOHN1116661111111611611116166616161191111611116111111111111611916661611611161111116611666611666661661666666616666166611611666111111119111111199966666116111116661161616661161111961166166616116619161616166169999111161666116616161111111116661111111116111111111116661661616616616111111111116196666161116666666166611199619999661611661911111611116111161611916111161611161111111111616111116611611111161661666161111111611611111116666661111161111161116111166199111111111111661111661916111111111111916166661611161616666166611166666666616611111616111611666611111611116119116666116111111161666116611111111111166611161111111166111111161666611111111111111116191116111111111
1101492151 0KENTUCK 20001MCCONNELL  1166611111111116161111611111111611116111116611111166161111161116161116116161111111111111111116116111611161111111161111116111666116661111116666611161161116661116116666611116161116611111661161616161611661661661616116161666116666616661116111116161111166966161111116161161161661116166111111111616111111111161166116161661616111161611116116111166616166111616611116111661116666111111661161166111111116111116666666111166161611111116666611111116661611111611661166666666111611111111111161616611161611616116611161161611116111111611111116611161111111111111111111161111611666611111616116111166116661666166161116111611166611611111666111111611616666116611161161161111111
1101492256 0WEST VI 10001ROCKEFELLER1111161111111611661116166616161111111611116111111111111611111611611611111111616611666611666661661666666616666166611611666111111611119111111169966116111111161999999999661111111161111116111661111616161111669611161661166616661111166666666111111116111199911116661661116616616111111111116116999999116666666666611161611111661611661111111611116111161611111111111111111111111111616111116611611111161661666161111111611611111166666666161161111111111111116111111166166666111111661116611111111191616166661611161616666166611166666666616611111616991611666611111611116111116666116111111161666111111191111111166611111111166611111111161666611111111199111116111111111191111
1101501171 0CALIFOR 10001BOXER      1117161991111611661116166616161991111611116111119911111611116661611611161111116611666611666661661666666616666166611611666111111611111111111166661116116111111161616661166111111161166616116616161616166116661611161666116111699999111116611711111116111111111116661661616616616111111161116116666161116666666666611199611111661691661111111619996111161619116111161611161111111111616111116611611111161999666161111111611611611116666661111161999961116111166111111111111111661111699166111111111111616166161611161616666166611166666666616611111999991611666611111611116111116116196111111161666116611111111111166711161111111166111199161666611111111111111116111111111991611
1101501511 0DELAWAR 10001CARPER     1111161111111111611119966616161111111611116111111111111111111111611611161111116611666611666666661666666616666166611616616111111111111111111169661116111111111161616611661111161166161616116616161666116666111111161161116611661111111116111111111116111111911116661661616616616161111161116116966166116666666666611111111111661611661111111111116111161161111111111111161611111111616111116611111111161161666161111111111611116116666661161661111111611111116111111161166666111111661116616111111111616166661666161611661666611166666666616616111116111661666611111611116111116666166111116161666111111191111111166611111111166611111111161666611119111111111116111116611111111
1101502121 0ILLINOI 10001DURBIN     1111161111111611661116166616161111111611116111111111111611116661611611161111196611666611666661661666666616666166611611666111111611111111111666661116116111111161616991161111111161161616116616161616166116111111161661116616161111111116611111111116111111111116661661616616616111111111116116666161116666666666611161111111661661661191111611116111161619111111111611161111111111616111116611111111161661666161111111611611111116666661111161111111116111166111111111111111661111661166111111111111616166661611161616666166611166666666616611111616111611666611111611116111116611116111111161666116611111111111166611161111111166111111161666611111111111111116111111111111111
1101503961 0ARIZONA 20001MCCAIN     9166616111111116111111616111111691116111116966111199199999966666169999999199999991111111999999999911611161111911169199999111661119999999999999999999999999999999999999999999999116961999916661616166616669999199999999999999999999619999991111996161119169966661111111161161161699999999999919999999661111116111166199991661999999999999999999991166616166999999999999999961116666169999911199999999999119999999699999999999999999999999999999999996661999999999991199666666111619999999999999999991161611616111999999999999999999111611111999999999991999999999999999999999999999999999999999999999999999999999999999999999999999999999999999999999999999999999999999999996111
1101505465 0NEVADA  10001REID       1111161111111616661116166616161111111611116611111111111611116111611611161111616611666611666661661666666666666166611611666111111616161111111166661116116111111161616661161111111161161616116616161616166116661111161661166616666111111116611111111116111111161116661661616616616111111111116116666161116666666666611161611111661611661111111611116111161611111111111611161111111111616111116611611111161661666161111111611611661166666661111161111111116111166111161111111111661111661111111161111111616166661611161616666166611116666666616611111616111611666611111611166111616699196111111161666116611111161166166611111611111166111111161666611611611166116116111111111111111
1101540651 0KENTUCK 20001BUNNING    1161111111111116161111616111111611116111116661111166161199161166611161616661111111111111111116116111611161111611161116111111666116661611116616611161161116661116161166611116661616611111661161611161611611661661616116161161616666666161166111166161116166966661111116161161161661116166111191111616611111116161166199166661116111111611616166611166616166161616661116111661111166161111661161166111116116111616666999111166161611111116666611111116661611111611661166666666111611161111611161616661161611616116611161161611166116616611161166661199996166666619111111161111616666161116666116111166116691666166111166611611666611661199616111161669916666119911661161166666166
1101540852 0MARYLAN 10001CARDIN     1111161111111611661116166616161111111611116111111111111611116661619611111111116611666611666661661666166616666166611611666111111611111111111166661116116111111161616661161111161161161616116616161616116616111111161666116611661111111116661111111119111111111116661661616616616111111111116116666161116666666666611161111111661611661111111611116111161111111111111611161111111111616111116611111111161661666161111111611611111116666661111161111161116111166111111111111111661111661996611111111111616166661611161616666166611166666666616611111616111611666611111111116111116666116111111161666116611191111111166611111111111166111111161666611111111111111116111111111111111
1101542453 0OKLAHOM 20001INHOFE     1166611161116166161111611111111616116111199616161966161111166166169166616661111111111111111199999911611161111611161116611111666116666611116611111661169916661116116666661116661611611111661161616161611611666661616116661161116666666161166111116161111199966661111116161161161661116166161611111616661111111111666116166661116111116691611666611166616166161616661116111661111666161666661161166111616116111616666661191166161661166116666616111196661661111616661666666666111611111111661169616691161611616161616161161611166611111611161161611161996616111169116111161111996661669999616116111116116661666166111196611661666611661199666111161669916666166911161161161166166
1101542537 0SOUTH D 10001JOHNSON    9999999999999999999999999999999999999999999999999999999999999999999999999999999999999999999999999999999999999999999999999999999999999999999999999999999999999999999999999999999999999999999999999999999999999999999999999999999999999999999999999999999999999999999999999999999999999999999999999999999999999999999999911111661611661111111611116111111161111111111611161611111111616111116611611111161111666161111111611611111166666661111661111111611111116111111166166666111111661111616111111111616166161611111616666166111116666666616611111116111611666611111611116111116666116111111166666111111111611111166611111111166111111111161666611111111111111116111111111111166
1101542961 0ARIZONA 20001KYL        1166611111111116161111616111111696116161166616111199161199166666191166616161111111111111111616116611611161111611161116611111666166661611116611111661161116661116116166661116166116161661616661616166616666661661616166661161116666611111111111166161111169966661111116161161161661116166111611111616661111111161166116161661116111111111666166661166616166661616611116111661116616111166661166166111116116111116666666111166661911111116616616661616661611111616661666666666111611161111611161616661161611616166611161161611116111111611161166611161166166161111166111161111616661661116666616111166166696666166699966611666666611661166616111161666616666666611161661166666111
1101550134 0MISSOUR 20001BOND       1161661111119999161111619999991611116111116661111199161111161166111111111661111161111111161116116161611666111611161116666111166116661111111166661161161116661116116666611116166116611161661161616161611661661661616116661666616669616161116111116161111166666666111116161161161661116166116116611666111111161161611116111611116111111611616111111166616166161611111611111611111166116111616111111111111116116116611661111166161661111166666611611116661611111616661166666666111611161111111961616611161611616116611161161611616111116611111999911911111611666611611111161111616666111116616116111116111691666166111169611611166611661199611111111669916666116911161161161196111
1101550236 0NORTH D 10001CONRAD     1111161119991111161116166616161111111611116111111116111111111611611611111111116611666611666661661666666616666166611611666111111111111111111166661116116111111161616666661111111161161116111611111611116111661111161661116616661111111116661111111116111119911166661611116616616111111911116116616166116616666666611111611111611611661111111611116111161161111111111611161611111111616111116611111911161116666161111111611611116166666666161661111111611111166111111111166161111111661116616111111111616166161611161616666166611166666166616661111699991611666611111611116111116661616111111161666111111191911111166911111161161611111111161666611111111111111116111116611111611
1101563368 0WYOMING 20001THOMAS     1111661111116166161111619999999991116111116616991161161111161116161166616661111111111111111616116111611161111611161116611111666116661611111611111661161116661116116666611116661999999000000000000000000000000000000000000000000000000000000000000000000000000000000000000000000000000000000000000000000000000000000000000000000000000000000000000000000000000000000000000000000000000000000000000000000000000000000000000000000000000000000000000000000000000000000000000000000000000000000000000000000000000000000000000000000000000000000000000000000000000000000000000000000000000000000000000000000000000000000000000000000000000000000000000000000000000000000000000000000
1101570325 0WISCONS 10001KOHL       1111161111111611611116166616161111111611116111111111111611111111611611161111116611616611666661661666166616666166611611666111111611111611111666661116116111111161616611161111161161161616116616161616166116111111161661166616661111111116611111111116111111111116661661616616616111111111116116666166116666666666611161111111661611661111111611116111161111111111161611111111111111616111116611111111161661666161111111611611111166666661111161111111116111166111111111116111111111661116111111111111616166161611161616166166611166666166616611111616111611666611111611116111116666116111111161666111611111111111166611111111161111111111161666611111111111111116111111111111111
11015704 1 0CONNECT 32801LIEBERMAN  1111661111111611611111166616161111111611116611111161111111111161611611161161116611666611666661661666666616666166611111666911161611111111111666666166111111111161616611611111166166161996116616161616166166111161161661116116661111111116611111116161111166961116661611616116616111111111116116966161116666666666611116111191661611661119116111116116611166111111111611111611111111616111116611611111161111696161111111111161111116666666111161111191661111119999911166666666111611661116696111111111616166161611161616666166611166661166616611111166991611666619111611116111116661116111111161666116111111111111199911111111166611111111161666611111111111111116111111111111111
1102910862 0COLORAD 20001ALLARD     1166611991111116161111611111111911116111116616111166161111166166161166616661191111111111111116116111611161111611161111666111666116661611116611111661169916661116166616611116661116611161661161616161611661666661616116661166116666666161116111996161111169666661111116161161161661116116116111111616611111111111166116161661116111111611616166611166619166661616661116111616116666161116661161166111616116111616666666111166161611116111666611111196661661111616666666666666111611111111661161616661161611616116611161161611166111111611161161611161999611161611166111161111616666161616666116111166116661666166161196111666166611611199616111161999999666116611166161161666166
11029142 5 0RHODE I 10001REED       1111161111111611611116166616161111111611116111111111191611111111611611161111616611666611666661661666666616666166611611666111111111111111111166661116119111111161616661661111111161161616116616161616166116111111161666116111661111111116661111111116111111111116661661616616616191111111116196666161116666666666611161611111661661661111111611116111161661111111161611111611111111616111116611611111161661666161111111611611611116666661111161111611616111166111111111111111661111661166116111111111616166661611161616666166611166666666616611111616111611666611111611116111116666166111111661666111661116111111666611111111111166111111161666619111111111111116111111111111611
11029147 6 0VERMONT 32801SANDERS    9111161111111611661116166616161111111611116111111111111611111111611611111111616611666611666661661666666616666166611611666111111611111111111166611116116611116161616611166111611161166616116616161616166116661611161666116611661111161116966111111116611111111116666661616616616111111111116116666161116666666666611161611111661611661111111611116111161619116111161661161111111111616111116611611111161661666161111111691611611166666661111161616191116111666111111111111111661111661116611111111111616166661611161616666166611166666666616611111616111611666611111619116111116666116111111161666116611111111111166611161111111166111111161666611111111111111116116116111111666
1102930542 0ARKANSA 10001LINCOLN    1111161111111611661116166616161111111611116111111111111691111111611611111111116611616611666666661666166616666166611611661111111611111111111166666116111111111111616661611111161166161616116611111111111666119111161161166616661111111616661111991116111111111116661661116616616191111111116196666161116666666666611111199999999999999911111611116111161161116111161611161611111111616111116611111111161111666161111111611611111166666666166661111111611111161111111116166661111111661116116111111111616166111611161111196666611166666116616611111116111611666611111611116111111111616161111161666111111111111111166611111111166111111111161666611111111111111116111111111111111
1102934563 0IDAHO   20001CRAPO      1999661111111116161111611111111611116161116611111166161911161116191166116161111111111111111616116111611161111611161111661111666116661611111616611161161119999999996166611116666116611661661161616161611661661661616116161666111611666111166111116161119166969661111116161161161661116116111191111616661111111111166116161661116111111111611166611166616166161616661616111611111666111111661199166111111116661161666661191166161666666666666611111116661661111611661666666666111611661111111161616611161611616111611161161611116111116611161166611199111616666611116111161111616616661116611116111116111691666166161661611661666611661161616111161611616666116611161661161611166
1102937312 0NEW JER 10001MENENDEZ   1111161111111611611116166616961111111611116111111111111611116661611611161111616611666611666661661666666616666166611611666111111611111111111166661116111111111161616661166111161166161616116616161616166116111111161666116116161111111116661111111116111111111116661661616616616111111111116116666161116666666666611161611111661661661111111611116111161611111111161611161111111111616111116611611111161661666161111111611611111116699991111161611161116111966111111111111116661111661166111119111111616166161611161616666166611166666666616616111616111911666619911611116111111111116111111161666116611191111111166611161111111166111111161666611111111111111116111111111111111
1102938924 0OHIO    10001BROWN      1111161111111611661116166616161111111611116111111111111111116661611611661111116611666611666661661666666616666166611611666111111111111111111166661116116111111161619999999111111161161616116616161616166116111111161661116616661111111616666111111116111111111116661661616616616111111111116116666161116666666666611161611111661691611111111611116111161611116111161611161111111111616111116611111111161661666161111111611611611116666661111161111161116111166111111111111111661111661116611111111111616166661611161616666166611166666666616611111616111611666619111611116111116666116111111161666116611111611111166611161111911166111111161666611111111111111116111116111111611
1102951244 0GEORGIA 20001CHAMBLISS  1166611111111116161111616111111696116111116661111169161111166166161166616161111111111111111616166911611161111611161111661111666116661611116611111161161116661116111166611116161616661611661161616961611661661661616116161661616666666161116111996161111166966661111116161161161161116166111111111616111111111111166116161611116111116111661166611169616166111616661616111661116666161111661161166111111116111616666661111166161666666666666661111116661661111691661166666666116611111111111161616611161611616116611161161611116611111611111111619161111111111111111111161111611666611111611116111116111661666166166616611661166611111199611111111611616666116611161161161116111
1102952332 0KANSAS  20001BROWNBACK  9999999991111116999119916111111619999991116619161169199111961116161996116161111111111111111616116111611161111611169116661111666119999611116669999969999919999916119999611119166999999999961161166166111666669999916199999999999999616111116111169999111166666999999999999999999969999999999999999999611111111161166116996161116111666111111616611166616166911616999996111669116666161111611161166111116111111616666996111166161666166161616611111196661611111619661166666666111611111111111161616611161611616111611161161611116111116611161111611161111611111111161111161111116666661116616116111166111691666166199996611611166611611111166616111611616666116691161161161166166
1102953446 1MISSISS 20001WICKER     0000000000000000000000000000000000000000000000000000000000000000000000000000000000000000000000000000000000000000000000000000000000000000000000000000000000000000000000000000000000000000000000000000000000000000000000000000000000000000000000000000000000000000000000000000000000000000000000000000000000000000000000000000000000000000000000000000000000000000000000000000000000000000000000000000000000000000000000000000000000000000000000000000000000111699661166666666111611661991111169616661161611616111611161166611116111616611161161611161111111111111116111161111611111111116611116111116119661666166166616111611966611611111611111161611616699116691111161161111166
1102953765 0NEVADA  20001ENSIGN     1166616111111166161111611111111616116161116666169999161111161166161166616161111111111111111116116111611161111611161111611111666119661611116661111161169916161116161116611116161116661111661161616161611661661661116916161166116611616161116111996161111166966661111116161161161661116166111191111616661111111161166116161661116111116111661616661166616166611616661116111661116616161116661199166111116116111616666666191166169911166111616611611616661661119916661666666666111611111111111169616661161611616116611161161611116111111691161166611161111611111111116111161111616666691116666616111166161696666166611166611661966611661199616111161666699666116691161161166696111
1102954847 0NORTH C 20001BURR       1166611111111166161111616111111616116111116611111169161111166666161996616161111111111111111116116111611161111111161111111111661116661611116611111161161116661116111116611116161916666111161161616161611661661661616116661161616666616161116111996161111169666661111116161161161661196166111111111616661111111161166116161661116111111611666166611166616166661616661116111661116666161116661111166111616116111116666666191166161661119116666611911616661661111619961166666666116611111911611161616661161611616116611161161616116111111611161116611161111611111111166111161111996166661116666116111166119661666166111116611661666611611111666111111669916666116611161161166966111
1102955553 0OKLAHOM 20001COBURN     1166616161166166166111611199999996116161166666161166161116166666161166616661119111111111111116116111611161111611161116111111666166666611116611111661111116661116161116611699611111616111169111616161611661669999999999999999999999666161166111116161111166966691111116161161161661116166161611916616666111111161166116166661116111116611661666661166616166661666661116611661116666161616661166166111616116111616666666191166161661166116666616111196661661119966666666666666111611111111661196616661161611616111616161161611166611111611161161611161116616111161166111161111666166661166666616111199996666666166611196611666666611661199666111111996616666666611166161166666111
1102956648 0SOUTH C 20001GRAHAM     1166611111111116111111611111111691116111116666161166161111166166161166616161111111111111111116116111611161111611161116611111666119661611111611111691991116161116119966611116166166161661116661616166616666669161116116161166116616611111111111116161111169966661111111161161161169916166111691111616661111111111166116191661116111116611611666611166616166161666661116111661116666161111661191166111116116119116666661111166161661116616666611111116661661191699961166999999999999999111661161616611161611616111611161161611116111111611111111611161111611111111166111161111611166611116616116611166111661999966166616111661966611611111666111161999916666116691166161196616111
1102973223 0MICHIGA 10001STABENOW   1111161111111611611116166616161111111611116111111111111611916661611611111111116611666611666661661666166616666166611611666111111611111119111166661116116111111161616661161111111161161616116666111616161111661111161661116616661666161116666111111116111111911116661661616616616111111111116116666166116666666666611161611111661611661111111611116111161611111111111611161111111111616111116611611111161661666161111111611611611166666666116666111111116111166111111111116111661111661996111111111111616166161611161616666166611166666166616611111616111611666611111611116111116111116111111161666111111191111111166611111111111166111199161666611111111111111116111111111111166
11029740 4 0NEW HAM 20001SUNUNU     1161661111111116161111616111111611116111116661111166161111161166111166116161116111111111116116166611611161111611161111611111666116661611116611111161161196161116161111611699661611611166161161616161611611661611111166661161116111666161166111111166111166666169111116161161661161116116111111916616111111111161111116161661616111161111616116611161116166611611111116111661111166111111611161116111111116111616111666111166161611116111616111611616661611111611661166166666111611111111161161616611161611616116611111161611116111111611161116611161111611161111161111111111616666661111666616611116161666166196666616111611166611611111166616611661199666116696111161161196111
1102975437 0SOUTH D 20001THUNE      1166611111111116161111666111111611116111116611111166161111161116161116616161111111111111111616161111611166111111161116661111666116661611116611111166116116161116116666611116661111611111161161616161611611661661116116161666111111666161116111996161111166666661111116161161161161116166111111111616111111111161166116166661116111111111611616611166616166161616661116111661116666161111611111166111116116111116666661111161161166666161116611111116661611911611661166666666111611661111611161616611161611616111611161161611116111611611161161611161111611111111111111161111616666661111616116111116111661666166161116611611966611611161666111111666616666116611161161161166111
1102990944 0GEORGIA 20001ISAKSON    1166611111111116161111616111111616116111116611111169161111166166161166116161111111111111111616166111611161111611161111661111666116661611116611111161161116661116119666611116161616661611161161616161611661661661616116161611616666666161116111116161111166966661111116161161161161116166111111111616111111111111166116111661116111116111661166611166616166111616661616111661199999991111661161166111111116111116666661111166161661166166666611111116661661111611661166666666111611111111111169616611161611616116611161161611116111111611111116611161111111111111111111161111611666611116611116111116111691666166166711111661166611111111611111111611916666166611161161161111111
1102991845 0LOUISIA 20001VITTER     1166611111111116161111666111111616116161116611111166161999666666111166616161111111111111111116116111611166111111161116661111666116661611116611611166116699999999916666661116611611611111661161616161611611666661616116661661616666666661166111199999999166666661111116161161161661116166111111111616111111111111166116161661116111111611616166111166616166161666611116111661111666161116661161166111116116119916666661111166161661166116666611111116661611111691661166666666116611111611161161616661161611616196611161161611116111616611161161611161111111161161111111961611611111161166616116111116111661666166111166611611966611661199616111161666666666116691166161161166166
1102993648 0SOUTH C 20001DEMINT     1166616111199116161111611111111616116161166666161166161111166166161166616661111111111111111116116111611161111611161116611111666119661611116611111661116616661116169999611616666116611111661161616161611611666661616116661161116666666661166111116161111169966661111116161161161661116166161691111616661111111161166116166666116111116611666166661166616166661616661116111661116666161666661166166111616116111616666666111166161611161116666616611696661661111691661666666666116611111611661161616661161611616166611161161611166111111611161161611161166616111161166166169991616666661116666616111166176666966166611166611666666611661199616111161666616666666611166999966666166
1103931073 0WASHING 10001CANTWELL   1116661111111611611116169616161191111611116111111111111111116661611611111911116611616611666666661666666616666166611611666111111611111111111166661116111111111161616661161111161166161616116616161616166166111111161666116116161111111116661111111116111111111116661661616116616111111111116116666161116666666666611161111111661611661111111611116111169991116111111611161111111111616111116611611111161661666161111111611611111166666611111661111161116111166111111111111111661111661116111111111111616166161611161616166666611966666666616611111616111611666611111611116111116111116111111161661111611111111111166611161111111166111111161666611111111111111116111111111111166
1104010335 0NEBRASK 10001NELSON  BEN1111161111161111161116166111111111116111116111111111111111111111611611111161111611616611666666161666166666666166111611669111116111111111111166661116111116161111616666611111111111611116111161111111111111111111161161161616661111111661166111111116111111111161661616111111611161111161116116611166116116666166611111111111116111661111111611116111111166111111161611111619111111616111116611111111161111666161111111111611111166666661116661111111611111111111119999666666111611661111616111111111611666161611111111166666611111666166611611111116111611666611111611116111116661116111111161616111111111111111166611111111166611111199161666111111111111111116111111111111111
1104010513 0NEW YOR 10001CLINTON    1111161991111611661116166616161111111611116161111111111611116661611611111111116611666611666661661666666616666166611611666911111611111111111166661116116111111161616611161111911161166616116666161616166116111111161961116616161111111916611111111116111111111116661611616616616191199111116196666161116666666666611961691111999999999999911619996111161611111111199999991199999999996999199999999999999661999999199999999611999199999991199999999999999999996199919999999999999999999999999999999991616166161611161616666166611166661666616611199999991999999999999999916199999999996111999999999916619999999999999991991111111166191111161666611111111111999996111111111911111
1104030081 0ALASKA  20001MURKOWSKI  1111661111111166161111666111111611116111116611111199111199161116111111911161111111111111166616116161611611111111161111661111661116661111111166611161161116661116116666611116161116161616111161616161111666661661616111666661116111616111116111116161111166666166611116161161661161116166116191666666111111666661611116911611111611161111116111116166616166111611111616111619911666116111616111111111111116666161111661111166161611166111166611111116661611111611661666166666111611661111111169116111161611616111611161161616611116616611616116611161111611666611116111166111611166111111661616611116169666966116661611111111966611111199161666611611616666116616111161161111111
1104030142 0ARKANSA 10001PRYOR      1111161111111611661116166616161111111611116111111111111611111111611611111161116611616611666661661666166616666166611111666111111111111111111166661116116111111111616666611111161116111116116611111161611661661611161161166611661661111611166111111116111111111116661661116616616111111111116116666161116666666666611116111111661611661111111611116111161166111111161611161611111111616111116611111111161116666161111111611611111166666666166661111111611111111111111166166666111111661111116111111111616166161611161111166166611166666166616611111116111611666611111611116111111111616161111166666111111111111111166711111111966611111111161666611111111111111116111111111111111
1104030233 0MINNESO 20001COLEMAN    1111661991111111161111166111111611116111116111111116161111161116161111111161116111111111166616166166611616111166161111666111166116611611116666661161111116161111116661611116166116669611111161611166111661661611116911161666161111616161116111111161111166666116611616161161161161116999999916961666991666616161111116111661616111161111111111616116116166111111111616111661116166111111611111111111161111666161111611111161161166666166166611111116661611111611611166666666111611661111111961616611161611616111111111161616116111616611111111611111111611111111111111111111616661116111611111611116111661916111166611111111966611111199161616611611111161999911111111111111111
1104030347 0NORTH C 20001DOLE       9166611111111116161111666111111611116111116616161166161111196166161116611161111111111111111116166111611161111611161111111111666116661611116661161161161116661916119999999999661116611111661161616161611611661661616616661161616666666661166111116161111169966161111116161161161161116166111611111616111111111111166116111661116111161111611616111166616166161616661116111611996666111111611111166111111116166111666661111166161661111116666611111116611611119911611166666666111611661111111161616611161611616111161161161616161111111611111116611161119999999999111111161119616666166116611111661111111661166116166616111111166611111111161616611619999661111691111161111111166
1104030454 0TENNESS 20001ALEXANDER  9161661111111116161111616116111111116111116616111166161199161166161116116161116111111111161116166661611161111611161111111111661116661111116166611161161116661116116666611116161116111161661161616161611661661661116166166111116611666161166111116161111169966661111116161161161161116166111111616616111111111161111199111661616111111111611116111166616166161611161116111619111666116111611111116111111116116161111661911166161661111116666161111116661611111616661166666666111611111991111161616611161611616116611161161616116116111611111111611161111161666611119999161111616666111116611199999166111691666166199916111611166611111199961111119611616666166611161161161611111
1104030549 0TEXAS   20001CORNYN     1166611111111116161111611111111611116111116616111166161111166666161166616161111111111111111116166111611161111611161116611111666116661611116611111161161116161116116666611116666116661161661161616161611661669661616116661161116666666161116111116161119169966161111116161161161161116166111111111616661111111111166116111661116111116111666166661166616166161616661116111661111166161166661161166111116116611111666669911169161661166116666611111116661611111616661166666666111611111999999961616611169611616116611161161611116111111611111116611161991611161111166111161111616611111116616116111166111691966166161716611611666611161199611111161616616666116611191161161111111
1104050062 0COLORAD 10001SALAZAR    1111161111111611161116166616161111111611116111111111111611111111611611111111116611616611666666661666166616666166611611666111111111111111111166661116111116111161616666611111166166161616116666161616166666111111161661166616661111111111611111111116111111111116661661616616616161111111116116666166116666666666611111111111661611661111111611116111161161111111161611161611111111616111116611111111161161666161111111611611111166666666161661111111611111116111111116116161111111661111616111111111616166161611161616166666611166666166616611111616111611666611111611116111116166116111111161666111111111111111166711111111166111111111161666611111111111111116111111111111111
1104050143 0FLORIDA 20001MARTINEZ   1166611111111116161111666111111691116161116996111166161111166666161116616161111111111111111116116111611111111611161116111111666119661611116661111161111116161116116666611116166166161661616161616166616666661161616616161166116166611111111111166161111166966661111116161161161661116166116191111616111611111161166116111661616111161111616166611166616166111616611116111611111166111111611161161161116111116161666661191166161961166616666661111116661611111611661166666666111611161111611161616111161611616116161611166611116116611611161111611161111611666611161111161119611111116111616111661116111661166166166616111611166611111199161666611611616666116611191161161116111
1104050221 0ILLINOI 10001OBAMA      1116661111111611611116166616161111111611116111111111111699916661611616161111116611666611666661661666666616666166611611661111111619911119911166661116119911111161619661161911991161166999916616161616166116111199961961119916161111111116661111991116999191119116999999999999999999991999999996696161116666666666611161999999999999999999991611119911161911999111999999999999999999999999999999999999999661999999999999999611999199999991199999999999999999996199119999111111699999999999999999999991616166161611169616666166611166661666616611199999991999999999999999919999999999996111999999999916999199999999999999999111911111199999999999999999999999999999999999999991111
1104070033 0MINNESO 10001KLOBUCHAR  1111161111111611611116166616161111111611116111111111111611111111611611161111116611666611666661661666166616666166611611666111111111111111111166661116116111111161616661161111161161161616116661111616116116111111161661166616161111111116611111111116111111111116661661116116616111111161116116666166996666666666611111611111661611661111111611116111161111116111161611161111116111616111116611611111161661666161111111611611611166666661116661111111116111166111111111111161661111661116111111111111616166161611161611666166111166666166616611111616111611666611111111116111116161116111191161661116611111111111166611111111111166111111161616611111111111999916111111111111111
1104070134 0MISSOUR 10001MCCASKILL  1111161111111611611116166616161111111611116111111111111611116661611616661111116111616611166661661616666666666166611611661111111111111111111161161116116116111161616611661111111111111116116161111116111111661611161661166616161666166666666611111116111111111116661661616616616111111111116116916166116666616666611111116111661611611111161611116111161161616111161611161611111111616111616699961111161666661161111166691611611166666666111161111116611161116111111111116111119991661116616119111111616166161611161611161116111166661166616611111116111611166111166111116111116611116111116161666111111111111111176611111111161111111199161616111111111199111196111116161991111
1104070264 0MONTANA 10001TESTER     1116661111111611661116166616161111111611116111111111111611111111611611611111116611616611666666661666166616666166611611661111111611111611111166661116119911111111616661661111611111111616111611111661111111661611161661166616661111166661166611111116611111111116661661116616616111111111116116666161116666666666611161111111661611661111111611116111161161116111161611161611116661616111116611111111161666666161111111611611611166666611161611111111611111166111111111111161661111661116616111111111616166161611161111166666611166666166616611111116991611666611111611116111116661116111111161666111111111111111166611111111911166111199161616611111111111111116111111111111166
1104070314 0PENNSYL 10001CASEY      1111161111111611611116166616161111111611116111111111111611116661611611161111116611616611666661661666166616666166611611666111116111111111111166661116116611111161616611661111111161161616116616161616166116111111161661116616661111111116661111111116111111111116661661616616616111111161116116666161116666666166611111111111611111611111111611116111161161111111111611161611111111616111116611111111161661666161111111611611611116666611116161111111611111166111111111111111111111661111116111111111616166161611161616666166611116666666611611111616111611666611111611116111116666116111111161666111111111111111166611111111111111111111161666611111111111111116111111111111111
11040704 5 0RHODE I 10001WHITEHOUSE 1111161111111611611116166616161111111611116111111111111611111111611611161111616611666611666661661666666616666166611611666111111111111111111166661116116111111161616661166111111161166616116616161616166166111111161666116916661111111116661111111116111111111116661661616616616111111111116116666161116666666666611161611111661661661191111611116111161611111111111611161111111111616111116611611111161661666161111111611611616116666661111161111611116111166111111111111111111111661166111111111111616166661611161616666166611166666666616611111616111611666611111611116111116666116111111661666116661196111111666611111111111111111111161666611111111111111116111116111111611
1104070554 0TENNESS 20001CORKER     1166611111111116161111666116111611116611116611111199161111161166161116616166616111111111111116116111611161111111161111611111666116661611116666111161111111161116116616611116661111611111661161616161611611661661616116166116116111666161116111116161111166666161111116161161161161116166111111616616116111111161111116111661616111116111661616611166616166161611111616111661111166161111611161166111116116666161111661111166161661166116666611111116661611111661666666666666111611161111161161616661161611616116611161161611116116111611111111611166661616666611161111161111616666111116616199999166111661661161166616111661166611111199961111111666616666166616161166166111111
1104070640 0VIRGINI 10001WEBB       1111661111111611661116166616161111111611116111111111111611116661611611611111116611666611666666661666666666666666611611666111111111111111111166661116116611111161616616661111111161161616116666161616111116661611161161166116161111111616666611111116611111911116661661616616616161111111116116666166116166666666611111111191661611611111111611116111161161116111161611111611116161616111616611111111161661666161111111611611111116666661111161111111611111166111111111116611111111661116616111111111616166161611161661666166611166666666616611111699111611666611111611116111116666116111111161616116111199111111166911111111161111111111161666611111111111111116111111111111111
1104070768 0WYOMING 20022BARASSO    0000000000000000000000000000000000000000000000000000000000000000000000000000000000000000000000000000000000000000000000000000000000000000000000000000000000000000000000000000000000000000000000000000000000000000000000000000000000666161166111116161111166666161111116161161161161116166111611111616111111111111166116166661116111116111661616666166616166161616611116111661116666161111661111166111116116111616666661111166161611166111661616111116661661111611661666666666111611111111616661616661161611616116611161161611116111611611161166611161161616111611166111161111616666661116666116111166116661666166111666611661666611661166616111161666616666116611161161161166166
1104930071 0CALIFOR 10001FEINSTEIN  1111161111111611661116166616161111111611116161111111111611116661611611161111116611666611666661661666666616666166611611666111111611111111111166661116116191111161616661161111161166161616116666161616166666111111161966116116661111111111111111111116611119911116661991616616616111111161116116666161116666666666611111111111661661661111111611116111161111111111111611161111111111616111116611611111161111996161111111111611111116666661111161111119999999166111111116166161161111661166111111111111616166161611161616666166611166666666616611111616111611666619111611116111116116116111111161666116611191111111166611111111166111111111161666611111111111111116111111111911111
1104930649 0TEXAS   20001HUTCHISON  9166661161111116161111666111111611116111116616119966111199166666111166616161111111111111111616166111611161111111161111661111161116661611116616611161161111161116116166611116666116661161161111616161611666666661616116161111616666666161116111116161111169966161111116161161161161116166111111611616111111111111161116111661116111161111616116611166616166111611161616111661111166111111611111116111111111666161611661111166161961116166666611111116661611111611661166666666111691161111111191616611161611616116611161166611116111616111111166611161111611161619116111161111616111161116616116111116111661666166161616111611166611111199111111161616616666119911161161161111111
1104930767 0UTAH    20001BENNETT    1161161111111116161111611111111611116111116611111199161111161116111111116161111111111111161616116161611111111611161111666111661116661111111166611161161196661116116666611116166116661661661161616161111666666661616116661166116166616111111111116161111166966161111116161161161161116166116111116616661111111111166116161661116111161111616166611116616169111616611616111611111666111111611111111111111111116161666661111166161661111166666661111616661611111616661166666666111611661111111161616611161611616111611161161666616116616611661116611161991111666611116111161111616666111116661616111166161696666166666616111611166611611111166666611611666666116616161161161111111
1104930873 0WASHING 10001MURRAY     1111161111111611661116166616161111111611116111111111111111116661611611111111616611616611666661661666666616666166611611666111111611111111111166661119111116111161616661161111111161161616116616161616166116111111161666116616161111111116661111111116111111111116661661616116616111111111116116666161116666666666611999111111661611661111111611116111161611111111111611161119111111616111116611611111161661666161111111611611111166666661111661111111116111166111111111111161661111661116111111111111616166161611161616666166691166666666616611111616111611666611111611116111116111196111111161666111611191111111166611111111111166111199161666611119911111111116111111111991111
1104930925 0WISCONS 10001FEINGOLD   1116661111111611611116166616161111111611116111111111111611111611611611661111616616666611666661661616166616666166611611661111111611111611111661616116116111111166611611166161111161166616116616161616166116111111161666116616161111111116661111111116111611111116661661616616616111111111116116666161116666666666611161166111661611661111161611116111166611666111116161661161116111611111616611666111161661666161111116611611616166666661111161116161166161666111111111111111661111661116111111111116616166161611161616666166111166661166616611111616111611666611166111116111116666666111166161661116611111111111166611161111111166111111161616611111111111111116166116116611666
1104970041 0ALABAMA 20001SESSIONS   1161611111119116161111661111111611116111116616161166161199161116161166616161111111111111111616116111611161191611161116611111666116661611111616111161116116161116111666611116661611111111661161616161611611666661116916111661199961666661166111116166111166666661111116161661161161116161111191111616111111111111166116166661116111111111611666611166616166661616661116111611111666111111661161166111116116119999666666111166161661111116666661111116661611111611661666666666111611111111661161616611161611616116611161161611166111111611161161611161111161161111166111161111616666111116666116111166116661666166161611111661166619611116666111161611616666166616161161166666166
1104970245 0LOUISIA 10001LANDRIEU   1166661111111111111116166616161111111611116911111111111111116661611611111111116611616611666666661616166616666166611611666111119119111111116166661116111111111111616611611111111111111116111616111616111111661611161161666616666666161166666111111116111111911116661611116116616161111111116116966166116666666166611111111111611611661111111611116111111161111111111611161611111116616111616611611111161666666161111111111611111666666666661661111116611111111111111166166666111111661991116111111111616166111611611111666166116116666166116611111116111611666611111619916111991111111161111161616111119191661191166611111111166611111199161666611111111111111191111111116191166
11049703 2 0MAINE   20001COLLINS    1111661111111116111111166111111111116111116116111116161111161166161111111161116111116111666616161166111616116166111116661111661116611111111666611166116116111111116611611111161116661616111661166166116666666611161666111111161111616111166111111166111166616116111611161161661161116166116116661661111666666661611116111611661611161111111111116116116166111111111666161661111111116111616111111111161111666161111611111116161111166111116661611616611611111611611166166666111111661116111161116611111611111611161111161166611161616111116111111116111611161611111111111111616666166111166611666111161166116111666611111111166611111111161616611111116111111616111111111111111
1104970435 0NEBRASK 20001HAGEL      1166661991119999161111616111111611119991116616161116111199161116111616116161111661111111111116116111611161111611161616661111616116111611116611111111161116661116116666611116166166661661116616161666111166669111696116661666616666611611961111111116111166916661111111661161161661116166116111611616111111111111166116166661616111161699916616611161161161166616611616111696111111116111661191116166111111666161666661111616161611166161666669911611611661111661666666166666111111661111616661116991161611616116611161161619991116616611661111611161111616666611199999196119999999161111166616111111161696666166666611111611166611611199166666619611699616999911111161161111111
1104970572 0OREGON  20001SMITH  GORD1116161111111111161111666111111691116111116666161116116111166616111111611111111611111111666666161161611616111166161611661111111116611611116666661111116116161116111161611119166116661611161161161161611661661611111616111616611111666111116111111116111166616166611616161161161161116166116116666666111666666161611116111661611611161111111611111161116161911111161616161661111116111111611111111111161116666161111611111611161161666161166661111116616611111611611166166666111111661111111111111111161611616111161161166666116111116611111111611111111611666611111111111111616666116111611111661111611691111111166611111111166611111111661616611611111111111616111111111111111
1104970668 0WYOMING 20001ENZI       1161611111116116161111611111111611116111116611161166161199991116161166616661111111111111111116116111611161111611169999999999996116661611111666111161161116661116116666611116661616616161661161616161611611669961616116661161116666666161166111116161111166666166111116161161161161166166111611111616111111111111166116166661116111116111661616666166616166661616611116111661116666161111661161166111116116111616666666111166161611166111661616111116661661111611661666666666111611111111616669616661161611616116611161161611116111611611161166611161991616111611166111161111616666661116666116111166116661666166111666611661666611661161666111111666616666116611161161161166166
1104990122 0INDIANA 10001BAYH       1116161991111611111111166616161111116111116161111116111611111111611111161111116611616611666661661616166611666166611611661991111611111611111666161116111119611111616661661111111111661616116616111616166111111119161661169616611161161616666111111116111111111116611611116111616161111161116116666161116666666661611111111111661611661111111611616111111161111111161611111669911161611111616611611111161661661161911111111611111661166661116161111116611161116119111161166661111111661111616111111111611611161611161111166166111161611161116611611611111611166611161111111111996666116111116161661111111691111111166611111111166611111111161999911111111111111111111111169111111
1104990324 0OHIO    20001VOINOVICH  9161161111116116161111666116161611111611116696161169111111166666111111111161111111666611661616616111161161666111661116611111666116661119916669661161161116661116616616611116161166661616116161116166616666661161116116166666166666616111116111996166111166666661111616666666666161111661166111911616116611111166166116166611616111161111611611116116616166161116661666116611111666166111661111111111161116161116666611111666199611116116616661111616611161111611661166166666111611661111111161616611616616161116611161161666111111666666661111611116111161666611111611166111616666611111166666111161161666666166666611111166166611111111161116611611696666116611661116161166111
1109465941 0ALABAMA 20001SHELBY     1166666111111616161116666111111611116111116611111161161111161116111166116161111111111111111616116161611166111611161116611111666116661611111616111161116116661116116666611116661111111111161111616161611611666661616116111161116669666161166111116161111166666161111116161161161161116116111191111616111111111111166116161661116111111111611616611166616166111616611616111611111116616111661161116111161116111611666661111166161661111616666661111116661611111661661666666666111611111111111161616611161611616116611161161661116111116611161161611161111111111611116111161111616666111116611116111116116691666166166611111611166611611199166116611611616666116611161161166666166
